{
  "contractName": "IdeaMarketplace",
  "abi": [
    {
      "constant": true,
      "inputs": [],
      "name": "owner",
      "outputs": [
        {
          "name": "",
          "type": "address"
        }
      ],
      "payable": false,
      "stateMutability": "view",
      "type": "function"
    },
    {
      "constant": true,
      "inputs": [
        {
          "name": "",
          "type": "uint256"
        }
      ],
      "name": "ideas",
      "outputs": [
        {
          "name": "submitter",
          "type": "address"
        },
        {
          "name": "owner",
          "type": "uint256"
        },
        {
          "name": "description",
          "type": "string"
        },
        {
          "name": "isPrivate",
          "type": "bool"
        },
        {
          "name": "votes",
          "type": "uint256"
        },
        {
          "name": "hasNDA",
          "type": "bool"
        }
      ],
      "payable": false,
      "stateMutability": "view",
      "type": "function"
    },
    {
      "constant": true,
      "inputs": [],
      "name": "nextIdeaId",
      "outputs": [
        {
          "name": "",
          "type": "uint256"
        }
      ],
      "payable": false,
      "stateMutability": "view",
      "type": "function"
    },
    {
      "constant": true,
      "inputs": [
        {
          "name": "",
          "type": "address"
        }
      ],
      "name": "tokens",
      "outputs": [
        {
          "name": "",
          "type": "uint256"
        }
      ],
      "payable": false,
      "stateMutability": "view",
      "type": "function"
    },
    {
      "inputs": [],
      "payable": false,
      "stateMutability": "nonpayable",
      "type": "constructor"
    },
    {
      "anonymous": false,
      "inputs": [
        {
          "indexed": true,
          "name": "user",
          "type": "address"
        },
        {
          "indexed": false,
          "name": "amount",
          "type": "uint256"
        }
      ],
      "name": "TokensAwarded",
      "type": "event"
    },
    {
      "anonymous": false,
      "inputs": [
        {
          "indexed": true,
          "name": "ideaId",
          "type": "uint256"
        },
        {
          "indexed": true,
          "name": "submitter",
          "type": "address"
        }
      ],
      "name": "IdeaSubmitted",
      "type": "event"
    },
    {
      "anonymous": false,
      "inputs": [
        {
          "indexed": true,
          "name": "ideaId",
          "type": "uint256"
        },
        {
          "indexed": true,
          "name": "submitter",
          "type": "uint256"
        }
      ],
      "name": "IdeaSubmittedByID",
      "type": "event"
    },
    {
      "anonymous": false,
      "inputs": [
        {
          "indexed": true,
          "name": "ideaId",
          "type": "uint256"
        },
        {
          "indexed": true,
          "name": "company",
          "type": "address"
        }
      ],
      "name": "IdeaClaimed",
      "type": "event"
    },
    {
      "anonymous": false,
      "inputs": [
        {
          "indexed": true,
          "name": "ideaId",
          "type": "uint256"
        },
        {
          "indexed": true,
          "name": "voter",
          "type": "address"
        }
      ],
      "name": "Voted",
      "type": "event"
    },
    {
      "anonymous": false,
      "inputs": [
        {
          "indexed": true,
          "name": "ideaId",
          "type": "uint256"
        },
        {
          "indexed": true,
          "name": "company",
          "type": "address"
        }
      ],
      "name": "NDASigned",
      "type": "event"
    },
    {
      "constant": false,
      "inputs": [
        {
          "name": "description",
          "type": "string"
        },
        {
          "name": "isPrivate",
          "type": "bool"
        }
      ],
      "name": "submitIdea",
      "outputs": [],
      "payable": false,
      "stateMutability": "nonpayable",
      "type": "function"
    },
    {
      "constant": false,
      "inputs": [
        {
          "name": "ownerId",
          "type": "uint256"
        },
        {
          "name": "ideaId",
          "type": "uint256"
        },
        {
          "name": "description",
          "type": "string"
        },
        {
          "name": "isPrivate",
          "type": "bool"
        }
      ],
      "name": "submitIdeaWithId",
      "outputs": [],
      "payable": false,
      "stateMutability": "nonpayable",
      "type": "function"
    },
    {
      "constant": false,
      "inputs": [
        {
          "name": "ideaId",
          "type": "uint256"
        }
      ],
      "name": "claimIdea",
      "outputs": [],
      "payable": false,
      "stateMutability": "nonpayable",
      "type": "function"
    },
    {
      "constant": false,
      "inputs": [
        {
          "name": "ideaId",
          "type": "uint256"
        }
      ],
      "name": "voteForIdea",
      "outputs": [],
      "payable": false,
      "stateMutability": "nonpayable",
      "type": "function"
    },
    {
      "constant": false,
      "inputs": [
        {
          "name": "ideaId",
          "type": "uint256"
        }
      ],
      "name": "signNDA",
      "outputs": [],
      "payable": false,
      "stateMutability": "nonpayable",
      "type": "function"
    },
    {
      "constant": false,
      "inputs": [
        {
          "name": "user",
          "type": "address"
        },
        {
          "name": "amount",
          "type": "uint256"
        }
      ],
      "name": "awardTokens",
      "outputs": [],
      "payable": false,
      "stateMutability": "nonpayable",
      "type": "function"
    },
    {
      "constant": true,
      "inputs": [
        {
          "name": "ideaId",
          "type": "uint256"
        }
      ],
      "name": "getIdeaOwner",
      "outputs": [
        {
          "name": "",
          "type": "uint256"
        }
      ],
      "payable": false,
      "stateMutability": "view",
      "type": "function"
    }
  ],
  "bytecode": "0x608060405234801561001057600080fd5b5033600360006101000a81548173ffffffffffffffffffffffffffffffffffffffff021916908373ffffffffffffffffffffffffffffffffffffffff16021790555061134a806100616000396000f3fe6080604052600436106100a9576000357c0100000000000000000000000000000000000000000000000000000000900480632b581990146100ae57806331fa3063146101095780636ee58065146101dd5780638da5cb5b1461021857806395b538371461026f578063980bf25d1461037a578063a05c2bb9146103a5578063a062cb32146103f4578063b72fd7731461042f578063d5e51bbd14610517578063e486033914610552575b600080fd5b3480156100ba57600080fd5b50610107600480360360408110156100d157600080fd5b81019080803573ffffffffffffffffffffffffffffffffffffffff169060200190929190803590602001909291905050506105b7565b005b34801561011557600080fd5b506101db6004803603604081101561012c57600080fd5b810190808035906020019064010000000081111561014957600080fd5b82018360208201111561015b57600080fd5b8035906020019184600183028401116401000000008311171561017d57600080fd5b91908080601f016020809104026020016040519081016040528093929190818152602001838380828437600081840152601f19601f82011690508083019250505050505050919291929080351515906020019092919050505061071b565b005b3480156101e957600080fd5b506102166004803603602081101561020057600080fd5b81019080803590602001909291905050506108e4565b005b34801561022457600080fd5b5061022d610b16565b604051808273ffffffffffffffffffffffffffffffffffffffff1673ffffffffffffffffffffffffffffffffffffffff16815260200191505060405180910390f35b34801561027b57600080fd5b506102a86004803603602081101561029257600080fd5b8101908080359060200190929190505050610b3c565b604051808773ffffffffffffffffffffffffffffffffffffffff1673ffffffffffffffffffffffffffffffffffffffff168152602001868152602001806020018515151515815260200184815260200183151515158152602001828103825286818151815260200191508051906020019080838360005b8381101561033a57808201518184015260208101905061031f565b50505050905090810190601f1680156103675780820380516001836020036101000a031916815260200191505b5097505050505050505060405180910390f35b34801561038657600080fd5b5061038f610c4a565b6040518082815260200191505060405180910390f35b3480156103b157600080fd5b506103de600480360360208110156103c857600080fd5b8101908080359060200190929190505050610c50565b6040518082815260200191505060405180910390f35b34801561040057600080fd5b5061042d6004803603602081101561041757600080fd5b8101908080359060200190929190505050610d48565b005b34801561043b57600080fd5b506105156004803603608081101561045257600080fd5b8101908080359060200190929190803590602001909291908035906020019064010000000081111561048357600080fd5b82018360208201111561049557600080fd5b803590602001918460018302840111640100000000831117156104b757600080fd5b91908080601f016020809104026020016040519081016040528093929190818152602001838380828437600081840152601f19601f820116905080830192505050505050509192919290803515159060200190929190505050610e55565b005b34801561052357600080fd5b506105506004803603602081101561053a57600080fd5b8101908080359060200190929190505050611008565b005b34801561055e57600080fd5b506105a16004803603602081101561057557600080fd5b81019080803573ffffffffffffffffffffffffffffffffffffffff16906020019092919050505061117b565b6040518082815260200191505060405180910390f35b600360009054906101000a900473ffffffffffffffffffffffffffffffffffffffff1673ffffffffffffffffffffffffffffffffffffffff163373ffffffffffffffffffffffffffffffffffffffff1614151561067c576040517f08c379a000000000000000000000000000000000000000000000000000000000815260040180806020018281038252600c8152602001807f556e617574686f72697a6564000000000000000000000000000000000000000081525060200191505060405180910390fd5b80600160008473ffffffffffffffffffffffffffffffffffffffff1673ffffffffffffffffffffffffffffffffffffffff168152602001908152602001600020600082825401925050819055508173ffffffffffffffffffffffffffffffffffffffff167fca0c05bc2d37fa8afaa7b8200bb281ba49ac03bf601026fe5731564c2a662e8e826040518082815260200191505060405180910390a25050565b60006002600081548092919060010191905055905060e0604051908101604052803373ffffffffffffffffffffffffffffffffffffffff168152602001600081526020018481526020018315158152602001600060405190808252806020026020018201604052801561079d5781602001602082028038833980820191505090505b508152602001600081526020016000151581525060008083815260200190815260200160002060008201518160000160006101000a81548173ffffffffffffffffffffffffffffffffffffffff021916908373ffffffffffffffffffffffffffffffffffffffff1602179055506020820151816001015560408201518160020190805190602001906108309291906111ac565b5060608201518160030160006101000a81548160ff021916908315150217905550608082015181600401908051906020019061086d92919061122c565b5060a0820151816005015560c08201518160060160006101000a81548160ff0219169083151502179055509050503373ffffffffffffffffffffffffffffffffffffffff16817f6e8a4bf78faca49cf95dfac3c83ac1a4ea37b6ad58fc82fad84798da153c4f0e60405160405180910390a3505050565b600073ffffffffffffffffffffffffffffffffffffffff1660008083815260200190815260200160002060000160009054906101000a900473ffffffffffffffffffffffffffffffffffffffff1673ffffffffffffffffffffffffffffffffffffffff16141515156109be576040517f08c379a00000000000000000000000000000000000000000000000000000000081526004018080602001828103825260138152602001807f4964656120646f6573206e6f742065786973740000000000000000000000000081525060200191505060405180910390fd5b60008082815260200190815260200160002060030160009054906101000a900460ff16151515610a56576040517f08c379a000000000000000000000000000000000000000000000000000000000815260040180806020018281038252600f8152602001807f496465612069732070726976617465000000000000000000000000000000000081525060200191505060405180910390fd5b6000808281526020019081526020016000206004013390806001815401808255809150509060018203906000526020600020016000909192909190916101000a81548173ffffffffffffffffffffffffffffffffffffffff021916908373ffffffffffffffffffffffffffffffffffffffff160217905550503373ffffffffffffffffffffffffffffffffffffffff16817f6c33bdf416c45ecea09e1f8b05841ca7545a9837b95015a3c35dfbedec6b755a60405160405180910390a350565b600360009054906101000a900473ffffffffffffffffffffffffffffffffffffffff1681565b60006020528060005260406000206000915090508060000160009054906101000a900473ffffffffffffffffffffffffffffffffffffffff1690806001015490806002018054600181600116156101000203166002900480601f016020809104026020016040519081016040528092919081815260200182805460018160011615610100020316600290048015610c145780601f10610be957610100808354040283529160200191610c14565b820191906000526020600020905b815481529060010190602001808311610bf757829003601f168201915b5050505050908060030160009054906101000a900460ff16908060050154908060060160009054906101000a900460ff16905086565b60025481565b60008073ffffffffffffffffffffffffffffffffffffffff1660008084815260200190815260200160002060000160009054906101000a900473ffffffffffffffffffffffffffffffffffffffff1673ffffffffffffffffffffffffffffffffffffffff1614151515610d2b576040517f08c379a00000000000000000000000000000000000000000000000000000000081526004018080602001828103825260138152602001807f4964656120646f6573206e6f742065786973740000000000000000000000000081525060200191505060405180910390fd5b600080838152602001908152602001600020600101549050919050565b60008082815260200190815260200160002060060160009054906101000a900460ff16151515610de0576040517f08c379a00000000000000000000000000000000000000000000000000000000081526004018080602001828103825260208152602001807f4e444120616c7265616479207369676e656420666f722074686973206964656181525060200191505060405180910390fd5b600160008083815260200190815260200160002060060160006101000a81548160ff0219169083151502179055503373ffffffffffffffffffffffffffffffffffffffff16817f6717c914b159214653208f58b6fe3b60e99036854c6795c9c080528a568d0bf960405160405180910390a350565b60e0604051908101604052803373ffffffffffffffffffffffffffffffffffffffff16815260200185815260200183815260200182151581526020016000604051908082528060200260200182016040528015610ec15781602001602082028038833980820191505090505b508152602001600081526020016000151581525060008086815260200190815260200160002060008201518160000160006101000a81548173ffffffffffffffffffffffffffffffffffffffff021916908373ffffffffffffffffffffffffffffffffffffffff160217905550602082015181600101556040820151816002019080519060200190610f549291906111ac565b5060608201518160030160006101000a81548160ff0219169083151502179055506080820151816004019080519060200190610f9192919061122c565b5060a0820151816005015560c08201518160060160006101000a81548160ff021916908315150217905550905050610fce60025460018501611193565b60028190555083837f63f185d652a513f7ae5fe5d677e78e726018598defd8b80093327db98a4761c460405160405180910390a350505050565b6000600160003373ffffffffffffffffffffffffffffffffffffffff1673ffffffffffffffffffffffffffffffffffffffff168152602001908152602001600020541115156110bf576040517f08c379a00000000000000000000000000000000000000000000000000000000081526004018080602001828103825260198152602001807f4e6f7420656e6f75676820746f6b656e7320746f20766f74650000000000000081525060200191505060405180910390fd5b60008082815260200190815260200160002060050160008154809291906001019190505550600160003373ffffffffffffffffffffffffffffffffffffffff1673ffffffffffffffffffffffffffffffffffffffff16815260200190815260200160002060008154809291906001900391905055503373ffffffffffffffffffffffffffffffffffffffff16817f030b0f8dcd86a031eddb071f91882edeac8173663ba775713b677b42b51be44b60405160405180910390a350565b60016020528060005260406000206000915090505481565b60008183116111a257816111a4565b825b905092915050565b828054600181600116156101000203166002900490600052602060002090601f016020900481019282601f106111ed57805160ff191683800117855561121b565b8280016001018555821561121b579182015b8281111561121a5782518255916020019190600101906111ff565b5b50905061122891906112b6565b5090565b8280548282559060005260206000209081019282156112a5579160200282015b828111156112a45782518260006101000a81548173ffffffffffffffffffffffffffffffffffffffff021916908373ffffffffffffffffffffffffffffffffffffffff1602179055509160200191906001019061124c565b5b5090506112b291906112db565b5090565b6112d891905b808211156112d45760008160009055506001016112bc565b5090565b90565b61131b91905b8082111561131757600081816101000a81549073ffffffffffffffffffffffffffffffffffffffff0219169055506001016112e1565b5090565b9056fea165627a7a72305820c5d5db6b71145955d1cca93bcd78e1602f6bc52ac3bfca993b9f0a52acf468f20029",
  "source": "// SPDX-License-Identifier: MIT\r\npragma solidity >=0.4.22 <0.9.0;\r\n\r\ncontract IdeaMarketplace {\r\n  struct Idea {\r\n    address submitter;\r\n    uint256 owner;\r\n    string description;\r\n    bool isPrivate;\r\n    address[] interestedCompanies;\r\n    uint256 votes;\r\n    bool hasNDA;\r\n  }\r\n\r\n  mapping(uint256 => Idea) public ideas;\r\n  mapping(address => uint256) public tokens;\r\n  uint256 public nextIdeaId;\r\n  address public owner;\r\n\r\n  constructor() public {\r\n    owner = msg.sender;\r\n  }\r\n\r\n  event TokensAwarded(address indexed user, uint256 amount);\r\n  event IdeaSubmitted(uint256 indexed ideaId, address indexed submitter);\r\n  event IdeaSubmittedByID(uint256 indexed ideaId, uint256 indexed submitter);\r\n  event IdeaClaimed(uint256 indexed ideaId, address indexed company);\r\n  event Voted(uint256 indexed ideaId, address indexed voter);\r\n  event NDASigned(uint256 indexed ideaId, address indexed company);\r\n\r\n  function submitIdea(string memory description, bool isPrivate) public {\r\n    uint256 ideaId = nextIdeaId++;\r\n    ideas[ideaId] = Idea(msg.sender,0, description, isPrivate, new address[](0), 0, false);\r\n    emit IdeaSubmitted(ideaId, msg.sender);\r\n  }\r\n\r\n  function submitIdeaWithId(uint256 ownerId, uint256 ideaId, string memory description, bool isPrivate) public {\r\n   // require(ideas[ideaId].submitter == address(0), \"Idea ID already used\");\r\n    ideas[ownerId] = Idea(msg.sender,ownerId, description, isPrivate, new address[](0), 0, false);\r\n    nextIdeaId = max(nextIdeaId, ideaId + 1); // Ensures nextIdeaId stays ahead\r\n    emit IdeaSubmittedByID(ideaId, ownerId);\r\n  }\r\n\r\n  function claimIdea(uint256 ideaId) public {\r\n    require(ideas[ideaId].submitter != address(0), \"Idea does not exist\");\r\n    require(!ideas[ideaId].isPrivate, \"Idea is private\");\r\n\r\n    ideas[ideaId].interestedCompanies.push(msg.sender);\r\n    emit IdeaClaimed(ideaId, msg.sender);\r\n  }\r\n\r\n  function voteForIdea(uint256 ideaId) public {\r\n    require(tokens[msg.sender] > 0, \"Not enough tokens to vote\");\r\n\r\n    ideas[ideaId].votes++;\r\n    tokens[msg.sender]--;\r\n    emit Voted(ideaId, msg.sender);\r\n  }\r\n\r\n  function signNDA(uint256 ideaId) public {\r\n    require(!ideas[ideaId].hasNDA, \"NDA already signed for this idea\");\r\n\r\n    ideas[ideaId].hasNDA = true;\r\n    emit NDASigned(ideaId, msg.sender);\r\n  }\r\n\r\n  function awardTokens(address user, uint256 amount) public {\r\n    require(msg.sender == owner, \"Unauthorized\");\r\n\r\n    tokens[user] += amount;\r\n    emit TokensAwarded(user, amount);\r\n  }\r\n\r\n  // Additional functions for token distribution \r\n\r\n  // Function to retrieve idea owner for a given idea ID\r\n  function getIdeaOwner(uint256 ideaId) public view returns (uint256) {\r\n    require(ideas[ideaId].submitter != address(0), \"Idea does not exist\");\r\n    return ideas[ideaId].owner;\r\n  }\r\n\r\n  // Helper function to get the maximum of two values\r\n  function max(uint256 a, uint256 b) private pure returns (uint256) {\r\n    return a > b ? a : b;\r\n  }\r\n}\r\n",
  "sourcePath": "C:\\Users\\Lenovo Yoga 7i\\Desktop\\sol2\\lightbulb\\contracts\\IdeaMarketplace.sol",
  "compiler": {
    "name": "solc",
    "version": "0.5.1+commit.c8a2cb62.Emscripten.clang"
  },
  "schemaVersion": "3.4.16",
  "updatedAt": "2024-06-26T13:06:22.918Z",
  "networkType": "ethereum",
  "devdoc": {
    "methods": {}
  },
  "userdoc": {
    "methods": {}
  }
}